:100000000C94E4000C940C010C940C010C940C0165
:100010000C940C010C940C010C940C010C940C012C
:100020000C940C010C940C010C940C010C940C011C
:100030000C940C010C940C010C940C010C940C010C
:100040000C94D30B0C940C010C945B0D0C94AD0D23
:100050000C940C010C940C010C940C010C940C01EC
:100060000C94240A0C940C01005EBCE2613FDD8319
:10007000C29C7E20A3FD1F419DC3217FFCA2401E88
:100080005F01E3BD3E6082DC237D9FC1421CFEA078
:10009000E1BF5D0380DE3C62BEE0025CDF81633D68
:1000A0007C22C09E1D43A1FF4618FAA427799BC558
:1000B00084DA3866E5BB5907DB856739BAE4065848
:1000C0001947A5FB7826C49A653BD987045AB8E638
:1000D000A7F91B45C6987A24F8A6441A99C7257B28
:1000E0003A6486D85B05E7B98CD2306EEDB3510F18
:1000F0004E10F2AC2F7193CD114FADF3702ECC9208
:10010000D38D6F31B2EC0E50AFF1134DCE90722CF7
:100110006D33D18F0C52B0EE326C8ED0530DEFB1E7
:10012000F0AE4C1291CF2D73CA947628ABF51749D7
:100130000856B4EA6937D58B5709EBB536688AD4C7
:1001400095CB2977F4AA4816E9B7550B88D6346AB7
:100150002B7597C94A14F6A8742AC896154BA9F7A7
:10016000B6E80A54D7896B35000000002400270048
:100170002A0000000000250028002B0000000000DD
:1001800023002600290004040404040404040202D9
:100190000202020203030303030301020408102006
:1001A0004080010204081020010204081020000011
:1001B0000007000201000003040600000000000028
:1001C00000000E011A091C0F11241FBECFEFD8E04A
:1001D000DEBFCDBF11E0A0E0B1E0ECEEF7E202C07F
:1001E00005900D92A834B107D9F712E0A8E4B1E068
:1001F00001C01D92AE3EB107E1F711E0C8ECD1E0BD
:1002000004C02297FE010E94F013C23CD107C9F737
:100210000E94730F0C94F4130C9400000F931F931F
:1002200088E491E00E94BC040AE511E0C80161E1A4
:100230000E94AA0888E691E0B8010E947E011F9101
:100240000F910895CF92DF92EF92FF920F931F9339
:1002500008E611E0C8010E944303C80160E00E9463
:1002600044046B017C010CEC12E0C801B701A6014B
:1002700022E030E00E946411C80160E071E00E9459
:100280007D1008E411E0C801B701A60122E030E0CA
:100290000E943906C8010E943F0664EF71E080E0C9
:1002A00090E00E94290C1F910F91FF90EF90DF903A
:1002B000CF9008950F931F930CEC12E0C80140E813
:1002C00055E260E070E00E94E80DC80162E071E074
:1002D0000E947D1088E691E00E94530483E161E072
:1002E0000E94C70C82E161E00E94C70C88E491E0A3
:1002F00060E70E949B061F910F910895FC0184E422
:1003000092E0928B818B768365831482108289E0E0
:10031000818381E08283838308956F927F928F929D
:100320009F92AF92BF92CF92DF92EF92FF920F9384
:100330001F93CF93DF93FB01EA01998180E028812D
:1003400030E0282B392BE081E23231F0E83221F025
:10035000E03109F084C04BC04C814F3329F1403467
:1003600020F44F3109F07BC02FC04F3579F04F3763
:1003700009F075C0B901882777FD8095982F0E94F4
:100380006B1220E030E040E85DE32EC03595279504
:10039000B901882777FD8095982F0E946B1220E085
:1003A00030E040E05EE320C03595279535952795F0
:1003B000B901882777FD8095982F0E946B1220E065
:1003C00030E040E85EE310C093E0359527959A95BC
:1003D000E1F7B901882777FD8095982F0E946B126D
:1003E00020E030E040E05FE30E941F1332C0EF8066
:1003F00035952795B901882777FD8095982F0E941C
:100400006B1220E030E040E85EE30E9467113B01A0
:100410004C016E2D70E02E81621B7109882777FDDB
:100420008095982F0E946B125B016C01FF2400E005
:1004300010E0C801B7010E9469129B01AC01C6011E
:10044000B5010E94D0119B01AC01C401B3010E940F
:1004500068119B01AC01832F942F752F00C0262FAC
:10046000382F492F572FB901CA01DF91CF911F9122
:100470000F91FF90EF90DF90CF90BF90AF909F9043
:100480008F907F906F9008950895EF92FF920F9351
:100490001F938C017B01FC01858196810E94C90715
:1004A000F80185819681B7010E94A807F80185812E
:1004B000968164EB40E00E946307F8018581968194
:1004C0000E94DE06F82EF801858196810E94C907F8
:1004D00080E0FF2009F481E01F910F91FF90EF90E1
:1004E0000895CF92DF92EF92FF920F931F938C01AA
:1004F0006B017A01FC01858196810E94C907F80190
:1005000085819681B6010E94A807F80185819681B0
:100510006EEB40E00E946307F801858196810E949E
:100520001207F7018083F801858196810E941207E6
:10053000F7018183F801858196810E941207F701F6
:100540008283F801858196810E941207F7018383D7
:10055000F801858196810E941207F7018483F801D2
:10056000858196810E941207F7018583F8018581B4
:1005700096810E941207F7018683F8018581968192
:100580000E941207F7018783F801858196810E94F6
:100590001207F7018087F801858196810E94C907BB
:1005A0001F910F91FF90EF90DF90CF900895DF9310
:1005B000CF93CDB7DEB729970FB6F894DEBF0FBE45
:1005C000CDBFAE014F5F5F4F0E94710289818111E3
:1005D00081E029960FB6F894DEBF0FBECDBFCF9154
:1005E000DF910895CF92DF92EF92FF920F931F93C6
:1005F000CF93DF93EC016B01452BE1F08B818823D6
:10060000C9F088818823B1F40E941B0C7B018C0106
:10061000CE0160E070E00E94D702882359F40E9466
:100620001B0C6E197F09800B910B6E5E724080402F
:10063000904070F3F6016081693039F06930A0F0C4
:100640006A3041F06B3081F40AC06EE570E080E002
:1006500090E00EC06CEB70E080E090E009C067E7CE
:1006600071E080E090E004C06EEE72E080E090E027
:100670000E94290CDF91CF911F910F91FF90EF9075
:10068000DF90CF900895CF93DF93EC018D819E8111
:100690000E94C9078D819E810E94A3078D819E8142
:1006A00064E448810E9463078A81882339F0CE017F
:1006B0002196BE0140E050E00E94F202DF91CF910E
:1006C00008950F931F938A010E947102C80168E088
:1006D0000E94CD0620E0F8019085891709F421E0F9
:1006E000822F1F910F910895CF92DF92EF92FF9288
:1006F0000F931F93DF93CF93CDB7DEB729970FB634
:10070000F894DEBF0FBECDBF8C017B016E01089453
:10071000C11CD11CA6010E946103882329F460E05A
:1007200070E08EEF92EC05C0C801B701A6010E94EF
:100730008D0129960FB6F894DEBF0FBECDBFCF91C5
:10074000DF911F910F91FF90EF90DF90CF90089570
:10075000DF93CF93CDB7DEB729970FB6F894DEBFFE
:100760000FBECDBF9C01FB0180818031D9F0C90152
:10077000AE014F5F5F4F0E9461038823A9F08D8116
:100780008F3371F0803418F48F3171F40BC08F35D2
:1007900019F08F3749F402C08BE007C08CE005C028
:1007A0008AE003C089E001C080E029960FB6F89482
:1007B000DEBF0FBECDBFCF91DF9108950F931F9382
:1007C0008B01CB0167E00E94CD0620E0F801978104
:1007D000891709F421E0822F1F910F910895EF925C
:1007E000FF920F931F93CF93DF93EC017B01042FB4
:1007F0008D819E810E94C00610E007C0CE01B70126
:100800000E94DE038823A9F00AC08D819E81B70172
:100810000E941408882329F0101759F4EFCF81E0C3
:1008200001C080E0DF91CF911F910F91FF90EF9079
:1008300008951F5F0117A8F3E8CFEF92FF920F937F
:100840001F93DF93CF93CDB7DEB728970FB6F894F9
:10085000DEBF0FBECDBF7C01462F8E010F5F1F4F45
:10086000B8010E94EF03C701B8010E9474032896E3
:100870000FB6F894DEBF0FBECDBFCF91DF911F91B1
:100880000F91FF90EF9008950E941D0426E636E632
:1008900046EE5FE30E941F1320E030E040E052E4A8
:1008A0000E9468110895AF92BF92CF92DF92EF92AB
:1008B000FF920F931F93DF93CF93CDB7DEB761976E
:1008C0000FB6F894DEBF0FBECDBF7C01FC01858161
:1008D00096810E94C006F70114826E010894C11C23
:1008E000D11C79E0A72EB12CAC0EBD1E01E02BC0AF
:1008F000C701B6010E94DE03882329F1F701808138
:10090000882341F4C701B6010E944502882311F0F3
:10091000F7010083C701B601A5010E947102F7012A
:100920001181C701B6010E94A803811718F4F701CD
:10093000818104C0C701B6010E94A803F701818329
:1009400084818F5F8483F70185819681B6010E943F
:100950001408882369F661960FB6F894DEBF0FBEBF
:10096000CDBFCF91DF911F910F91FF90EF90DF905E
:10097000CF90BF90AF900895FC01118A08952F92F7
:100980003F924F925F926F927F928F929F92AF921F
:10099000BF92CF92DF92EF92FF920F931F93DF935C
:1009A000CF93CDB7DEB72D970FB6F894DEBF0FBE4D
:1009B000CDBF1C014A835B836C837D832E830F83B1
:1009C000CB01BA0120E030E040E050E00E94CC11C1
:1009D00087FD03C014E019820CC02A813B814C8141
:1009E0005D8150582A833B834C835D8313E031E063
:1009F00039830F2EF0E08F2EF0E09F2EF0E8AF2E1F
:100A0000FFE3BF2EF02D442455244E81642E77241D
:100A10005F81852F90E06C01EE24D7FCE094FE2CE2
:100A20000FC0C701B6010E946B129B01AC01C5014A
:100A3000B4010E941F134B015C010894411C511C1E
:100A40004614570474F3B1E04B2E512C612C712CD9
:100A50001D861C86012F10E08F81C82EDD24EE2418
:100A6000FF240DC0C301B201A70196010E948613A5
:100A70002B013C01AC85BD851196BD87AC87EC850B
:100A8000FD85E017F10774F36A817B818C819D817C
:100A9000A50194010E941F1320E030E040E05FE3D5
:100AA0000E9468110E943D126B017C01FF818F2F13
:100AB00090E09C01442737FD4095542F28873987C3
:100AC0004A875B8723C03E8131503E8368857985A4
:100AD0008A859B850E946B129B01AC01C501B40104
:100AE0000E94D0114B015C016A817B818C819D81C8
:100AF000A50194010E941F1320E030E040E05FE375
:100B00000E9468110E943D126B017C01C414D5043F
:100B1000E604F704C0F6C501B40120E030E040E887
:100B20005FE30E94CC11882384F4F10180E490E01B
:100B300006C0923011F480E001C080E432968083D8
:100B400011829F5F9530A9F77BC0C114D104E104E5
:100B5000F10409F44DC0A4E0AA2E55244F81642E5F
:100B60007724882499243AC05E81552311F4BB244C
:100B700006C0BB248E81581611F4BB24B3940A2DF1
:100B8000AA940530C0F410E0000F111F020D131DD0
:100B9000B794BB24B794C701B601A40193010E9486
:100BA000B813E62FF0E0E95EFE4F8081B82AD80145
:100BB000BC9211961C92B2E0AB1629F4F101158299
:100BC0001482AA24A394C701B601A40193010E9430
:100BD000B813C901DA016C017D015394C114D10429
:100BE000E104F10409F6FE81F51508F0BDCF09C056
:100BF0008FE390E0D10119969C938E931897E3E0D0
:100C0000AE2EB981BB23D1F0EA2DAA94E530B0F421
:100C1000F0E0EE0FFF1FE20DF31D80E490E0918302
:100C200080830CC0E4E0EA1540F0EA2DF0E0EE0F1E
:100C3000FF1FE20DF31D11821082AA94A7FEF2CFCE
:100C40002D960FB6F894DEBF0FBECDBFCF91DF91CA
:100C50001F910F91FF90EF90DF90CF90BF90AF90DA
:100C60009F908F907F906F905F904F903F902F90CC
:100C700008950F930AE00E94BF040F9108950F9307
:100C80001F93CF93DF938C0181EC91E0F801608991
:100C90000E94E00881EC91E060E00E946209E801B6
:100CA00000E068817981707081EC91E00E946209B6
:100CB000698181EC91E00E9462090F5F2296083001
:100CC00081F781EC91E00E94A509DF91CF911F91FE
:100CD0000F9108951F93FC01162F81EC91E060891C
:100CE0000E94E008143008F010E0612F70E0660FF9
:100CF000771F616881EC91E00E94620981EC91E0CC
:100D00000E94A5091F9108951F93FC01162F81ECE5
:100D100091E060890E94E008103108F01FE0106E39
:100D200081EC91E0612F0E94620981EC91E00E94C8
:100D3000A5091F910895EF92FF920F931F937C01D5
:100D4000FC01608B01EC11E0C8010E94A909C801F7
:100D5000F70160890E94E008C80161E20E9462090F
:100D6000C8010E94A509C70160E00E946A06C70188
:100D70006FE00E9484061F910F91FF90EF900895FD
:100D8000FC0113861586148687E090E01286319761
:100D9000009711F00197FACF0895DC0180E00BC0B5
:100DA000E82FF0E08D9190E0E827F927E859FF4F10
:100DB000E49161508E2F662399F70895DF92EF92A8
:100DC000FF920F931F93FC01E08001811281F89440
:100DD000F80181818E2981838281DE2CD0948D213E
:100DE000828383E090E00E94820CF80181818D2152
:100DF00081838AE090E00E94820CF801008178945F
:100E000085E390E00E94820C80E010E0FF240E2138
:100E10001F21012B09F081E01F910F91FF90EF90AE
:100E2000DF900895EF92FF920F931F93CF93DF937C
:100E30007C0101E010E0C0E0D0E0C7010E94DE06C6
:100E40008111102B000F2196C830D105B1F7812FE9
:100E5000DF91CF911F910F91FF90EF9008951F9315
:100E6000CF93DF93FC011081C181D281912F9095A6
:100E700060FF12C0F8948A8189238A838981812B3B
:100E800089838AE090E00E94820C8A81812B8A8388
:100E9000789487E390E011C0F8948A8189238A834B
:100EA0008981812B898381E490E00E94820C8A8170
:100EB000812B8A83789485E090E00E94820CDF91F8
:100EC000CF911F910895CF92DF92EF92FF920F93EF
:100ED0001F93CF93DF938C01E42EFF24F394C0E0A3
:100EE000D0E0C62EDD2460E08F2D90E08C219D2186
:100EF000892B09F061E0C8010E942F07FF0C2196A1
:100F0000C830D10581F7EE20A9F4F894D8011196E4
:100F1000ED91FC91129791818C918095982391830A
:100F20001196ED91FC91129792818C918095982366
:100F300092837894DF91CF911F910F91FF90EF9062
:100F4000DF90CF9008956CEC40E00E946307089515
:100F5000EF92FF920F931F93CF93DF938C017B014E
:100F600065E540E00E946307C0E0D0E0F701EC0FC8
:100F7000FD1FC801608140E00E9463072196C830D0
:100F8000D105A1F7DF91CF911F910F91FF90EF90C5
:100F90000895DF92EF92FF920F931F93CF93DF9309
:100FA000FC010081C181D281F8948981D02ED09436
:100FB0008D21898378941DE7E02EFF24115059F18B
:100FC00082E090E00E94820C888190E08E219F2137
:100FD000892BA1F3F8948A818D218A838981802BC2
:100FE0008983789480EE91E00E94820CF894898144
:100FF0008D21898386E490E00E94820C888110E034
:1010000090E0E822F922EF2809F411E078948AE9C7
:1010100091E00E94820C812FDF91CF911F910F915F
:10102000FF90EF90DF900895AF92BF92DF92EF9222
:10103000FF920F931F93CF93DF93EC015B018D859C
:10104000882309F061C0CE010E94C907882329F4D2
:101050001B861D861C8690E06BC0CE0160EF40E0D1
:101060000E94630701E0DD24EE24FF24F394CE0107
:101070000E94DE06182FCE010E94DE06113019F400
:101080008130E1F439C0181709F58B85081770F421
:1010900060E0FE01EE0DF11D838190E02F2D30E028
:1010A00082239323181619064CF003C060E008173A
:1010B00029F0093008F04CC00C874AC0FE01EE0D43
:1010C000F11D83818F29838361E009C0612FFE01B7
:1010D000EE0DF11D9F2D9095838189238383CE0191
:1010E0000E942F070F5FFF0C19F4E394FF24F39481
:1010F00087E08E1508F0BBCF013430F0DB86DD20B1
:1011000011F581E08D871FC01B861D861C8690E02F
:10111000DE0120E030E0F501E20FF31F13968C9121
:10112000139780832F5F3F4F11962830310599F731
:10113000892FDF91CF911F910F91FF90EF90DF905A
:10114000BF90AF9008958B818823F1F291E0E0CFBA
:10115000D02EBDCFFF920F931F938C01F62E862FBA
:1011600060E00E94C70C8F2D90E0FC01E656FE4F18
:10117000E491D801EC938A579E4FFC016491E62FCD
:10118000F0E0EE0FFF1FE458FE4F85919491129608
:101190009C938E9311971B961C921B971D961C92E5
:1011A0001D971C961C92F80187E090E012863197FB
:1011B000009711F00197FACF1F910F91FF900895BA
:1011C00081E08093C00160939D011092BE01109256
:1011D000BF01089520919C0130E080919B01281B64
:1011E0003109C901089540919B0180919C014817E4
:1011F00018F02FEF3FEF0AC0E42FF0E0E558FE4F64
:101200008081282F30E04F5F40939B01C9010895F2
:10121000E0919B0180919C01E81718F0EFEFFFEF40
:1012200006C0F0E0E558FE4F8081E82FF0E0CF01E6
:10123000089508951092C4011092C30188EE93E0BE
:10124000A0E0B0E08093C5019093C601A093C701D0
:10125000B093C8018BE291E09093C2018093C101E9
:101260000895CF92DF92EF92FF920F931F93CF9347
:10127000DF937C016B018A018091C0018823A1F07A
:10128000C0E0D0E00DC0D701ED91FC91D601AC0FCC
:10129000BD1F0190F081E02DC7016C910995219649
:1012A000C017D10780F304C0CB01642F0E94090A44
:1012B000C801DF91CF911F910F91FF90EF90DF90C8
:1012C000CF900895DF93CF930F92CDB7DEB7FC0197
:1012D00069838091C0018823C9F08091BF01803269
:1012E00038F081E090E09383828320E030E015C005
:1012F0008091BE01E82FF0E0E256FE4F9981908385
:101300008F5F8093BE018093BF0105C0CE0101961F
:1013100061E00E94090A21E030E0C9010F90CF91FD
:10132000DF9108950F93062F80919D016EE971E082
:101330004091BF0121E00E94B4091092BE011092B9
:10134000BF011092C0010F91089561E00E949209BF
:10135000089510929B0110929C011092BE01109270
:10136000BF010E94B50B08950F931F93582F122FA2
:10137000413210F081E04AC08091CD018823E1F72D
:1013800082E08093CD010093CF018FEF80933A02EA
:101390001092F5014093F601A5EDB1E0FB0102C00A
:1013A00081918D938E2F861B8417D0F31092CE01DE
:1013B0008091CE01550F852B8093CE018091D00175
:1013C000813041F41092D0018091CE018093BB0016
:1013D00085EC01C085EE8093BC00112321F0809143
:1013E000CD018230E1F380913A028F3F11F480E029
:1013F0000DC080913A02803211F482E007C08091E2
:101400003A02803311F084E001C083E01F910F9114
:101410000895482F613210F081E008958091CD0148
:10142000843011F082E0089560931802A7EFB1E0D4
:10143000842F9C01F90102C081918D938E2F841B12
:101440008617D0F380E008951F920F920FB60F9287
:1014500011242F933F934F935F936F937F938F93B9
:101460009F93AF93BF93EF93FF938091B90090E068
:10147000887F90708036910509F4F2C0813691051D
:10148000CCF58832910509F47BC089329105B4F41A
:101490008031910509F46FC0813191053CF40097CA
:1014A00009F447C1089709F04FC165C0883191051B
:1014B00009F466C0809709F047C182C08034910565
:1014C00009F4A4C08134910544F48033910509F4F2
:1014D00082C0C89709F038C189C08035910509F4E8
:1014E00089C08835910509F496C08834910509F0C2
:1014F0002BC1AEC08839910509F413C18939910512
:10150000ECF48837910509F4ABC0893791054CF4A8
:101510008836910509F4A4C08037910509F014C1FB
:101520009FC08838910509F4FCC08039910509F401
:101530009DC08038910509F007C198C0803B910596
:1015400009F4C6C0813B91054CF4803A910509F439
:101550009FC0883A910509F0F7C0BAC0803C910558
:1015600009F4E3C0883C910509F4DFC0883B91058C
:1015700009F0EAC0C2C08091CE018093BB00CFC009
:101580009091F5018091F601981768F49091F5011A
:10159000E92FF0E0EB52FE4F80818093BB009F5F0C
:1015A0009093F501BCC08091CF01882309F44BC012
:1015B00085ED8093BC008091BC0084FDFCCFC2C04F
:1015C00080E280933A0285ED8093BC008091BC005C
:1015D00084FDFCCFB7C080E380933A0285ED809311
:1015E000BC008091BC0084FDFCCFACC088E380933C
:1015F0003A029BC08091F5019091BB00E82FF0E08A
:10160000EB52FE4F90838F5F8093F5019091F5012F
:101610008091F60182C08091F5019091BB00E82F86
:10162000F0E0EB52FE4F90838F5F8093F501809145
:10163000CF01882341F085ED8093BC008091BC00F0
:1016400084FDFCCF7FC081E08093D00184EA6EC02E
:1016500085ED8093BC008091BC0084FDFCCF72C0FE
:1016600083E08093CD011092390259C080913902F4
:10167000803208F056C0809139029091BB00E82F6B
:10168000F0E0E75EFD4F90838F5F8093390247C0A3
:1016900080913902803230F4E0913902F0E0E75E67
:1016A000FD4F108285ED8093BC008091BC0084FDCD
:1016B000FCCF1092CD0160913902E091D301F091FD
:1016C000D40189E192E070E00995109239022DC0B1
:1016D00084E08093CD011092170210921802E091DD
:1016E000D101F091D201099580911802882329F443
:1016F00081E0809318021092F70190911702E92F70
:10170000F0E0E950FE4F80818093BB009F5F909393
:1017100017029091170280911802981710F485EC27
:1017200001C085E88093BC000FC085EC8093BC00AD
:1017300009C010923A0285ED8093BC008091BC00F4
:1017400084FDFCCF1092CD01FF91EF91BF91AF913D
:101750009F918F917F916F915F914F913F912F91C9
:101760000F900FBE0F901F9018951092CD0181E041
:101770008093CF011092D00182E161E00E94060DBA
:1017800083E161E00E94060DE9EBF0E080818E7F4D
:10179000808380818D7F808388E48093B80085E496
:1017A0008093BC0008951F920F920FB60F921124E0
:1017B0002F933F938F939F93AF93BF9380913F025B
:1017C00090914002A0914102B091420230914302B7
:1017D0000196A11DB11D232F2D5F2D3720F02D5710
:1017E0000196A11DB11D2093430280933F02909367
:1017F0004002A0934102B093420280913B0290913B
:101800003C02A0913D02B0913E020196A11DB11D86
:1018100080933B0290933C02A0933D02B0933E0222
:10182000BF91AF919F918F913F912F910F900FBEDC
:101830000F901F9018958FB7F89420913F02309128
:10184000400240914102509142028FBFB901CA014A
:1018500008959B01AC017FB7F89480913B02909171
:101860003C02A0913D02B0913E0266B5A89B05C026
:101870006F3F19F00196A11DB11D7FBFBA2FA92F8F
:10188000982F8827860F911DA11DB11D62E0880F3A
:10189000991FAA1FBB1F6A95D1F7BC012DC0FFB7C6
:1018A000F89480913B0290913C02A0913D02B0914E
:1018B0003E02E6B5A89B05C0EF3F19F00196A11DB9
:1018C000B11DFFBFBA2FA92F982F88278E0F911D0A
:1018D000A11DB11DE2E0880F991FAA1FBB1FEA9549
:1018E000D1F7861B970B885E9340C8F22150304099
:1018F0004040504068517C4F21153105410551054C
:1019000071F60895019739F0880F991F880F991F74
:1019100002970197F1F70895789484B5826084BDA9
:1019200084B5816084BD85B5826085BD85B58160E3
:1019300085BDEEE6F0E0808181608083E1E8F0E043
:101940001082808182608083808181608083E0E872
:10195000F0E0808181608083E1EBF0E08081846051
:101960008083E0EBF0E0808181608083EAE7F0E053
:1019700080818460808380818260808380818160B7
:1019800080838081806880831092C1000895CF9306
:10199000DF93482F50E0CA0186569E4FFC013491D8
:1019A0004A575E4FFA018491882369F190E0880FCD
:1019B000991FFC01E859FE4FA591B491FC01EE5826
:1019C000FE4FC591D491662351F42FB7F8948C91B2
:1019D000932F909589238C93888189230BC0623043
:1019E00061F42FB7F8948C91932F909589238C9361
:1019F0008881832B88832FBF06C09FB7F8948C9172
:101A0000832B8C939FBFDF91CF910895482F50E097
:101A1000CA0182559E4FFC012491CA0186569E4FF1
:101A2000FC0194914A575E4FFA013491332309F433
:101A300040C0222351F1233071F0243028F42130AA
:101A4000A1F0223011F514C02630B1F02730C1F0DA
:101A50002430D9F404C0809180008F7703C0809136
:101A600080008F7D8093800010C084B58F7702C086
:101A700084B58F7D84BD09C08091B0008F7703C08D
:101A80008091B0008F7D8093B000E32FF0E0EE0FE7
:101A9000FF1FEE58FE4FA591B4912FB7F89466231F
:101AA00021F48C919095892302C08C91892B8C9381
:101AB0002FBF089508951F920F920FB60F92112411
:101AC0002F933F934F938F939F93EF93FF93809127
:101AD000C00082FD1DC04091C6002091840230915B
:101AE00085022F5F3F4F2F73307080918602909157
:101AF00087022817390771F0E0918402F09185027E
:101B0000EC5BFD4F4083309385022093840202C03A
:101B10008091C600FF91EF919F918F914F913F91DE
:101B20002F910F900FBE0F901F901895E091D80243
:101B3000F091D902E05CFF4F819191912081318138
:101B4000805C9F4F821B930B60E470E00E94A513A2
:101B5000892B11F00E945A0D08951F920F920FB613
:101B60000F9211242F933F938F939F93EF93FF93A3
:101B70002091C8023091C9028091CA029091CB0293
:101B80002817390731F48091C1008F7D8093C100FF
:101B900014C0E091CA02F091CB02E857FD4F2081BA
:101BA0008091CA029091CB0201968F7390709093AE
:101BB000CB028093CA022093C600FF91EF919F91C0
:101BC0008F913F912F910F900FBE0F901F901895FE
:101BD000AF92BF92DF92EF92FF920F931F93CF933A
:101BE000DF93EC017A018B01DD24403081EE580750
:101BF00080E0680780E0780711F0DD24D39491E05D
:101C0000A92EB12CEC89FD89DD2069F0C50108A061
:101C100002C0880F991F0A94E2F7808360E079E0A0
:101C20008DE390E005C0108260E874E88EE190E0FA
:101C3000A80197010E94B813215030404040504005
:101C4000569547953795279580E12030380720F045
:101C5000DD2011F0DD24D6CFE889F9893083EA89C7
:101C6000FB89208319A2EE89FF89408121E030E0C1
:101C7000C9010C8C02C0880F991F0A94E2F7482B07
:101C80004083EE89FF894081C9010D8C02C0880F15
:101C9000991F0A94E2F7482B4083EE89FF8940811F
:101CA000C9010E8C02C0880F991F0A94E2F7482BD5
:101CB0004083EE89FF8980810F8C02C0220F331F81
:101CC0000A94E2F7209528232083DF91CF911F917A
:101CD0000F91FF90EF90DF90BF90AF900895DC01DF
:101CE0001C96ED91FC911D97E05CFF4F81919191C5
:101CF00020813181805C9F4F821B930B60E470E0F8
:101D00000E94A5130895DC011C96ED91FC911D978E
:101D1000E05CFF4F20813181E054F040DF01AE5B99
:101D2000BF4F8D919C9111972817390719F42FEF08
:101D30003FEF07C08D919C91E80FF91F8081282FFC
:101D400030E0C9010895DC011C96ED91FC911D97CE
:101D5000E05CFF4F20813181E054F040DF01AE5B59
:101D6000BF4F8D919C9111972817390719F42FEFC8
:101D70003FEF10C08D919C911197E80FF91F2081C2
:101D80008D919C91119701968F73907011969C93F1
:101D90008E9330E0C9010895DC0191968C91919762
:101DA000882339F05496ED91FC915597808186FFF8
:101DB000F9CF91961C920895CF93DF93EC01EE85B5
:101DC000FF85E05CFF4F20813181E054F0402F5FC0
:101DD0003F4F2F733070DF01AE5BBF4F8D919C91F1
:101DE000119728173907D1F3E05CFF4F808191816B
:101DF000E054F040E80FF91F6083EE85FF85E05C5A
:101E0000FF4F31832083EE89FF89208181E090E0BC
:101E10000F8C02C0880F991F0A94E2F7282B2083A9
:101E200081E089A3EC89FD8980818064808381E0E1
:101E300090E0DF91CF9108951092CF021092CE02E0
:101E400088EE93E0A0E0B0E08093D0029093D102BE
:101E5000A093D202B093D3028BE391E09093CD0292
:101E60008093CC0284E492E09093D9028093D802CC
:101E700088E892E09093DB028093DA0285EC90E0B0
:101E80009093DD028093DC0284EC90E09093DF027B
:101E90008093DE0280EC90E09093E1028093E00278
:101EA00081EC90E09093E3028093E20282EC90E078
:101EB0009093E5028093E40286EC90E09093E70231
:101EC0008093E60284E08093E80283E08093E90255
:101ED00087E08093EA0285E08093EB0281E08093C3
:101EE000EC0208950895CF93DF930E948C0C0E941A
:101EF000720F0E945A01C6E9DDE00E94220120977C
:101F0000E1F30E94960DF9CFCF92DF92EF92FF920C
:101F10000F931F93CF93DF937C016B018A01C0E085
:101F2000D0E00FC0D6016D916D01D701ED91FC910C
:101F30000190F081E02DC7010995C80FD91F01500C
:101F400010400115110571F7CE01DF91CF911F915E
:101F50000F91FF90EF90DF90CF900895CF93DF9394
:101F6000EC016115710519F420E030E00FC0DB01D0
:101F70000D900020E9F71197A61BB70BE881F981B6
:101F80000280F381E02DAD0109959C01C901DF912B
:101F9000CF9108954F925F927F928F929F92AF92CE
:101FA000BF92CF92DF92EF92FF920F931F93DF9336
:101FB000CF93CDB7DEB7A1970FB6F894DEBF0FBEB3
:101FC000CDBF2C01742ECB01223008F42AE019A2D7
:101FD00031E2C32ED12CCC0EDD1E822E9924AA24F0
:101FE000BB24672D752FA50194010E94B8137901B8
:101FF0008A01C801B701A50194010E948613472DEB
:10200000461B0894C108D1084A3014F4405D01C051
:10201000495CF6014083E114F1040105110521F04A
:102020007E2C5F2DC801DDCFC201B6010E94AE0F2C
:10203000A1960FB6F894DEBF0FBECDBFCF91DF9152
:102040001F910F91FF90EF90DF90CF90BF90AF90D6
:102050009F908F907F905F904F900895DC012115A5
:10206000310541F4ED91FC910190F081E02D642F58
:10207000099508950E94CA0F0895CF92DF92EF92BA
:10208000FF920F931F93CF93DF93EC016A017B01C3
:102090002115310541F4E881F9810190F081E02DAD
:1020A000642F09951FC02A303105D1F477FF17C07E
:1020B000E881F9810190F081E02D6DE209958C01B4
:1020C00044275527BA014C195D096E097F09CE01D5
:1020D0002AE00E94CA0F9801280F391F04C02AE085
:1020E0000E94CA0F9C01C901DF91CF911F910F91EE
:1020F000FF90EF90DF90CF9008950E94AE0F08956B
:102100007F928F929F92AF92BF92CF92DF92EF9287
:10211000FF920F931F93CF93DF934C017A018B01B2
:10212000722ECB01BA01A80197010E948213882365
:1021300021F0C40169E071E021C0C0E0D0E05701A6
:102140006801E894D7F8C601B5012FEF3FEF4FE7DC
:102150005FE70E948213882351F4C601B5012FEF77
:102160003FEF4FE75FE70E94CC11181614F0C1E073
:10217000D0E0219739F0C4016DE071E00E94AE0F0C
:10218000EC0193C0C801B7012FEF3FEF4FE75FE4C9
:102190000E941B13181654F0C801B7012FEF3FEF30
:1021A0004FE75FEC0E94CC11882324F4C40161E165
:1021B00071E0E4CFC801B70120E030E040E050E03A
:1021C0000E94CC1187FD03C0C0E0D0E00EC0D40156
:1021D000ED91FC910190F081E02DC4016DE2099533
:1021E000EC0117FB109517F9109520E030E040E066
:1021F0005FE3DD240BC0CA01B90120E030E040E21A
:1022000051E40E94D0119B01AC01D394D71498F3F0
:10221000C801B7010E9468115B016C010E943D1268
:102220007B018C01C401B801A7012AE030E00E94C3
:102230002E10C80FD91F772039F0C40165E171E075
:102240000E94AE0FC80FD91FC801B7010E946912C2
:102250009B01AC01C601B5010E94671124C020E0BA
:1022600030E040E251E40E941F137B018C010E9488
:1022700038125B016C01CC24B7FCC094DC2CC40187
:10228000B601A5012AE030E00E943D10C80FD91F19
:10229000C601B5010E946B129B01AC01C801B701D8
:1022A0000E9467117A947720D1F6CE01DF91CF9109
:1022B0001F910F91FF90EF90DF90CF90BF90AF9064
:1022C0009F908F907F9008950E948010089550589D
:1022D000BB27AA270ED075C166D130F06BD120F094
:1022E00031F49F3F11F41EF45BC10EF4E095E7FB5F
:1022F00051C1E92F77D180F3BA17620773078407BA
:10230000950718F071F49EF58FC10EF4E0950B2E31
:10231000BA2FA02D0B01B90190010C01CA01A00137
:102320001124FF27591B99F0593F50F4503E68F192
:102330001A16F040A22F232F342F4427585FF3CFD3
:10234000469537952795A795F0405395C9F77EF4A4
:102350001F16BA0B620B730B840BBAF09150A1F0ED
:10236000FF0FBB1F661F771F881FC2F70EC0BA0F73
:10237000621F731F841F48F4879577956795B795FB
:10238000F7959E3F08F0B3CF9395880F08F09927F3
:10239000EE0F979587950895D9D008F481E00895B8
:1023A0000CD00FC107D140F0FED030F021F45F3FD8
:1023B00019F0F0C0511139C1F3C014D198F3992329
:1023C000C9F35523B1F3951B550BBB27AA276217F9
:1023D0007307840738F09F5F5F4F220F331F441F3E
:1023E000AA1FA9F333D00E2E3AF0E0E830D0915076
:1023F0005040E695001CCAF729D0FE2F27D0660F63
:10240000771F881FBB1F261737074807AB07B0E8A1
:1024100009F0BB0B802DBF01FF2793585F4F2AF0B7
:102420009E3F510568F0B6C000C15F3FECF3983E97
:10243000DCF3869577956795B795F7959F5FC9F714
:10244000880F911D9695879597F90895E1E0660F9D
:10245000771F881FBB1F621773078407BA0720F016
:10246000621B730B840BBA0BEE1F88F7E09508957F
:1024700004D06894B111D9C00895BCD088F09F579A
:1024800090F0B92F9927B751A0F0D1F0660F771FC0
:10249000881F991F1AF0BA95C9F712C0B13081F0A0
:1024A000C3D0B1E00895C0C0672F782F8827B85FE8
:1024B00039F0B93FCCF3869577956795B395D9F701
:1024C0003EF490958095709561957F4F8F4F9F4F0B
:1024D0000895E89409C097FB3EF490958095709517
:1024E00061957F4F8F4F9F4F9923A9F0F92F96E960
:1024F000BB279395F695879577956795B795F111D5
:10250000F8CFFAF4BB0F11F460FF1BC06F5F7F4F71
:102510008F4F9F4F16C0882311F096E911C0772383
:1025200021F09EE8872F762F05C0662371F096E88C
:10253000862F70E060E02AF09A95660F771F881F5B
:10254000DAF7880F9695879597F90895990F0008FF
:10255000550FAA0BE0E8FEEF16161706E807F90775
:10256000C0F012161306E407F50798F0621B730B10
:10257000840B950B39F40A2661F0232B242B252B91
:1025800021F408950A2609F4A140A6958FEF811D34
:10259000811D089597F99F6780E870E060E00895D5
:1025A0009FEF80EC089500240A941616170618066B
:1025B0000906089500240A94121613061406050647
:1025C0000895092E0394000C11F4882352F0BB0FD8
:1025D00040F4BF2B11F460FF04C06F5F7F4F8F4F3B
:1025E0009F4F089557FD9058440F551F59F05F3F76
:1025F00071F04795880F97FB991F61F09F3F79F025
:1026000087950895121613061406551FF2CF4695A6
:10261000F1DF08C0161617061806991FF1CF869528
:102620007105610508940895E894BB27662777270C
:10263000CB0197F908958ADF08F48FEF08950BD046
:10264000C0CFB1DF28F0B6DF18F0952309F0A2CF94
:10265000A7CF1124EACFC6DFA0F3959FD1F3950F42
:1026600050E0551F629FF001729FBB27F00DB11D16
:10267000639FAA27F00DB11DAA1F649F6627B00DA6
:10268000A11D661F829F2227B00DA11D621F739F8F
:10269000B00DA11D621F839FA00D611D221F749F9D
:1026A0003327A00D611D231F849F600D211D822FE4
:1026B000762F6A2F11249F5750408AF0E1F088232B
:1026C0004AF0EE0FFF1FBB1F661F771F881F915038
:1026D0005040A9F79E3F510570F05CCFA6CF5F3FF9
:1026E000ECF3983EDCF3869577956795B795F7956B
:1026F000E7959F5FC1F7FE2B880F911D96958795F3
:1027000097F9089523DF880B990B0895629FD001F4
:10271000739FF001829FE00DF11D649FE00DF11D9C
:10272000929FF00D839FF00D749FF00D659FF00D4B
:102730009927729FB00DE11DF91F639FB00DE11D38
:10274000F91FBD01CF011124089597FB092E07261B
:102750000AD077FD04D02ED006D000201AF4709550
:1027600061957F4F0895F6F7909581959F4F089555
:10277000A1E21A2EAA1BBB1BFD010DC0AA1FBB1F85
:10278000EE1FFF1FA217B307E407F50720F0A21BF7
:10279000B30BE40BF50B661F771F881F991F1A9464
:1027A00069F760957095809590959B01AC01BD018E
:1027B000CF010895AA1BBB1B51E107C0AA1FBB1F75
:1027C000A617B70710F0A61BB70B881F991F5A95BD
:1027D000A9F780959095BC01CD010895EE0FFF1FDC
:0C27E0000590F491E02D0994F894FFCFCF
:1027EC000A0048656C6C6F0A006E616E00696E665B
:1027FC00006F7666002E003F065B4F666D7D077F8F
:10280C006F777C395E79710000000062093109EA4A
:10281C0008F3080809190900000000DC0E840F6F8A
:08282C000EA30E830ECC0E007A
:00000001FF
